{
  "_format": "hh-sol-artifact-1",
  "contractName": "SupplyChainTracker",
  "sourceName": "contracts/SupplyChainTracker.sol",
  "abi": [
    {
      "inputs": [],
      "stateMutability": "nonpayable",
      "type": "constructor"
    },
    {
      "anonymous": false,
      "inputs": [
        {
          "indexed": true,
          "internalType": "string",
          "name": "shipmentId",
          "type": "string"
        },
        {
          "indexed": false,
          "internalType": "uint256",
          "name": "timestamp",
          "type": "uint256"
        },
        {
          "indexed": false,
          "internalType": "string",
          "name": "location",
          "type": "string"
        },
        {
          "indexed": false,
          "internalType": "string",
          "name": "status",
          "type": "string"
        },
        {
          "indexed": false,
          "internalType": "address",
          "name": "submittedBy",
          "type": "address"
        }
      ],
      "name": "CheckpointAdded",
      "type": "event"
    },
    {
      "anonymous": false,
      "inputs": [
        {
          "indexed": true,
          "internalType": "address",
          "name": "user",
          "type": "address"
        },
        {
          "indexed": false,
          "internalType": "enum SupplyChainTracker.Role",
          "name": "role",
          "type": "uint8"
        }
      ],
      "name": "RoleAssigned",
      "type": "event"
    },
    {
      "inputs": [
        {
          "internalType": "string",
          "name": "_shipmentId",
          "type": "string"
        },
        {
          "internalType": "string",
          "name": "_location",
          "type": "string"
        },
        {
          "internalType": "string",
          "name": "_status",
          "type": "string"
        },
        {
          "internalType": "string",
          "name": "_documentHash",
          "type": "string"
        }
      ],
      "name": "addCheckpoint",
      "outputs": [],
      "stateMutability": "nonpayable",
      "type": "function"
    },
    {
      "inputs": [],
      "name": "admin",
      "outputs": [
        {
          "internalType": "address",
          "name": "",
          "type": "address"
        }
      ],
      "stateMutability": "view",
      "type": "function"
    },
    {
      "inputs": [
        {
          "internalType": "address",
          "name": "user",
          "type": "address"
        },
        {
          "internalType": "enum SupplyChainTracker.Role",
          "name": "role",
          "type": "uint8"
        }
      ],
      "name": "assignRole",
      "outputs": [],
      "stateMutability": "nonpayable",
      "type": "function"
    },
    {
      "inputs": [
        {
          "internalType": "string",
          "name": "_shipmentId",
          "type": "string"
        }
      ],
      "name": "getCheckpointCount",
      "outputs": [
        {
          "internalType": "uint256",
          "name": "",
          "type": "uint256"
        }
      ],
      "stateMutability": "view",
      "type": "function"
    },
    {
      "inputs": [
        {
          "internalType": "address",
          "name": "user",
          "type": "address"
        }
      ],
      "name": "getRole",
      "outputs": [
        {
          "internalType": "enum SupplyChainTracker.Role",
          "name": "",
          "type": "uint8"
        }
      ],
      "stateMutability": "view",
      "type": "function"
    },
    {
      "inputs": [
        {
          "internalType": "string",
          "name": "_shipmentId",
          "type": "string"
        }
      ],
      "name": "getShipmentHistory",
      "outputs": [
        {
          "components": [
            {
              "internalType": "string",
              "name": "shipmentId",
              "type": "string"
            },
            {
              "internalType": "uint256",
              "name": "timestamp",
              "type": "uint256"
            },
            {
              "internalType": "string",
              "name": "location",
              "type": "string"
            },
            {
              "internalType": "string",
              "name": "status",
              "type": "string"
            },
            {
              "internalType": "string",
              "name": "documentHash",
              "type": "string"
            },
            {
              "internalType": "address",
              "name": "submittedBy",
              "type": "address"
            }
          ],
          "internalType": "struct SupplyChainTracker.Checkpoint[]",
          "name": "",
          "type": "tuple[]"
        }
      ],
      "stateMutability": "view",
      "type": "function"
    },
    {
      "inputs": [
        {
          "internalType": "address",
          "name": "",
          "type": "address"
        }
      ],
      "name": "roles",
      "outputs": [
        {
          "internalType": "enum SupplyChainTracker.Role",
          "name": "",
          "type": "uint8"
        }
      ],
      "stateMutability": "view",
      "type": "function"
    }
  ],
  "bytecode": "0x608060405234801561001057600080fd5b50336000806101000a81548173ffffffffffffffffffffffffffffffffffffffff021916908373ffffffffffffffffffffffffffffffffffffffff1602179055506003600160008060009054906101000a900473ffffffffffffffffffffffffffffffffffffffff1673ffffffffffffffffffffffffffffffffffffffff1673ffffffffffffffffffffffffffffffffffffffff16815260200190815260200160002060006101000a81548160ff021916908360038111156100d5576100d46100df565b5b021790555061010e565b7f4e487b7100000000000000000000000000000000000000000000000000000000600052602160045260246000fd5b6114658061011d6000396000f3fe608060405234801561001057600080fd5b506004361061007d5760003560e01c8063630a195b1161005b578063630a195b14610112578063759684d11461012e578063993746421461014a578063f851a4401461017a5761007d565b806303e39f0a1461008257806306b15c83146100b257806344276733146100e2575b600080fd5b61009c60048036038101906100979190610a6a565b610198565b6040516100a99190610cec565b60405180910390f35b6100cc60048036038101906100c79190610a6a565b6104bd565b6040516100d99190610d1d565b60405180910390f35b6100fc60048036038101906100f79190610d64565b6104e8565b6040516101099190610e08565b60405180910390f35b61012c60048036038101906101279190610e48565b61053e565b005b61014860048036038101906101439190610e88565b610685565b005b610164600480360381019061015f9190610d64565b6108cc565b6040516101719190610e08565b60405180910390f35b6101826108ec565b60405161018f9190610f6e565b60405180910390f35b60606002826040516101aa9190610fc5565b9081526020016040518091039020805480602002602001604051908101604052809291908181526020016000905b828210156104b257838290600052602060002090600602016040518060c001604052908160008201805461020b9061100b565b80601f01602080910402602001604051908101604052809291908181526020018280546102379061100b565b80156102845780601f1061025957610100808354040283529160200191610284565b820191906000526020600020905b81548152906001019060200180831161026757829003601f168201915b50505050508152602001600182015481526020016002820180546102a79061100b565b80601f01602080910402602001604051908101604052809291908181526020018280546102d39061100b565b80156103205780601f106102f557610100808354040283529160200191610320565b820191906000526020600020905b81548152906001019060200180831161030357829003601f168201915b505050505081526020016003820180546103399061100b565b80601f01602080910402602001604051908101604052809291908181526020018280546103659061100b565b80156103b25780601f10610387576101008083540402835291602001916103b2565b820191906000526020600020905b81548152906001019060200180831161039557829003601f168201915b505050505081526020016004820180546103cb9061100b565b80601f01602080910402602001604051908101604052809291908181526020018280546103f79061100b565b80156104445780601f1061041957610100808354040283529160200191610444565b820191906000526020600020905b81548152906001019060200180831161042757829003601f168201915b505050505081526020016005820160009054906101000a900473ffffffffffffffffffffffffffffffffffffffff1673ffffffffffffffffffffffffffffffffffffffff1673ffffffffffffffffffffffffffffffffffffffff1681525050815260200190600101906101d8565b505050509050919050565b60006002826040516104cf9190610fc5565b9081526020016040518091039020805490509050919050565b6000600160008373ffffffffffffffffffffffffffffffffffffffff1673ffffffffffffffffffffffffffffffffffffffff16815260200190815260200160002060009054906101000a900460ff169050919050565b60008054906101000a900473ffffffffffffffffffffffffffffffffffffffff1673ffffffffffffffffffffffffffffffffffffffff163373ffffffffffffffffffffffffffffffffffffffff16146105cc576040517f08c379a00000000000000000000000000000000000000000000000000000000081526004016105c390611099565b60405180910390fd5b80600160008473ffffffffffffffffffffffffffffffffffffffff1673ffffffffffffffffffffffffffffffffffffffff16815260200190815260200160002060006101000a81548160ff0219169083600381111561062e5761062d610d91565b5b02179055508173ffffffffffffffffffffffffffffffffffffffff167f4ac36fa53f167ceb85964be512e01de2a3b8bdb9862f917da079deeeff689b38826040516106799190610e08565b60405180910390a25050565b6000600381111561069957610698610d91565b5b600160003373ffffffffffffffffffffffffffffffffffffffff1673ffffffffffffffffffffffffffffffffffffffff16815260200190815260200160002060009054906101000a900460ff1660038111156106f8576106f7610d91565b5b03610738576040517f08c379a000000000000000000000000000000000000000000000000000000000815260040161072f90611105565b60405180910390fd5b60006040518060c001604052808681526020014281526020018581526020018481526020018381526020013373ffffffffffffffffffffffffffffffffffffffff16815250905060028560405161078f9190610fc5565b908152602001604051809103902081908060018154018082558091505060019003906000526020600020906006020160009091909190915060008201518160000190816107dc91906112d1565b506020820151816001015560408201518160020190816107fc91906112d1565b50606082015181600301908161081291906112d1565b50608082015181600401908161082891906112d1565b5060a08201518160050160006101000a81548173ffffffffffffffffffffffffffffffffffffffff021916908373ffffffffffffffffffffffffffffffffffffffff1602179055505050846040516108809190610fc5565b60405180910390207fe820f7a940abf1d793c24523689d6c5cb1e2752ce47d4f3c90aa89544a14f2af428686336040516108bd94939291906113dc565b60405180910390a25050505050565b60016020528060005260406000206000915054906101000a900460ff1681565b60008054906101000a900473ffffffffffffffffffffffffffffffffffffffff1681565b6000604051905090565b600080fd5b600080fd5b600080fd5b600080fd5b6000601f19601f8301169050919050565b7f4e487b7100000000000000000000000000000000000000000000000000000000600052604160045260246000fd5b6109778261092e565b810181811067ffffffffffffffff821117156109965761099561093f565b5b80604052505050565b60006109a9610910565b90506109b5828261096e565b919050565b600067ffffffffffffffff8211156109d5576109d461093f565b5b6109de8261092e565b9050602081019050919050565b82818337600083830152505050565b6000610a0d610a08846109ba565b61099f565b905082815260208101848484011115610a2957610a28610929565b5b610a348482856109eb565b509392505050565b600082601f830112610a5157610a50610924565b5b8135610a618482602086016109fa565b91505092915050565b600060208284031215610a8057610a7f61091a565b5b600082013567ffffffffffffffff811115610a9e57610a9d61091f565b5b610aaa84828501610a3c565b91505092915050565b600081519050919050565b600082825260208201905092915050565b6000819050602082019050919050565b600081519050919050565b600082825260208201905092915050565b60005b83811015610b19578082015181840152602081019050610afe565b60008484015250505050565b6000610b3082610adf565b610b3a8185610aea565b9350610b4a818560208601610afb565b610b538161092e565b840191505092915050565b6000819050919050565b610b7181610b5e565b82525050565b600073ffffffffffffffffffffffffffffffffffffffff82169050919050565b6000610ba282610b77565b9050919050565b610bb281610b97565b82525050565b600060c0830160008301518482036000860152610bd58282610b25565b9150506020830151610bea6020860182610b68565b5060408301518482036040860152610c028282610b25565b91505060608301518482036060860152610c1c8282610b25565b91505060808301518482036080860152610c368282610b25565b91505060a0830151610c4b60a0860182610ba9565b508091505092915050565b6000610c628383610bb8565b905092915050565b6000602082019050919050565b6000610c8282610ab3565b610c8c8185610abe565b935083602082028501610c9e85610acf565b8060005b85811015610cda5784840389528151610cbb8582610c56565b9450610cc683610c6a565b925060208a01995050600181019050610ca2565b50829750879550505050505092915050565b60006020820190508181036000830152610d068184610c77565b905092915050565b610d1781610b5e565b82525050565b6000602082019050610d326000830184610d0e565b92915050565b610d4181610b97565b8114610d4c57600080fd5b50565b600081359050610d5e81610d38565b92915050565b600060208284031215610d7a57610d7961091a565b5b6000610d8884828501610d4f565b91505092915050565b7f4e487b7100000000000000000000000000000000000000000000000000000000600052602160045260246000fd5b60048110610dd157610dd0610d91565b5b50565b6000819050610de282610dc0565b919050565b6000610df282610dd4565b9050919050565b610e0281610de7565b82525050565b6000602082019050610e1d6000830184610df9565b92915050565b60048110610e3057600080fd5b50565b600081359050610e4281610e23565b92915050565b60008060408385031215610e5f57610e5e61091a565b5b6000610e6d85828601610d4f565b9250506020610e7e85828601610e33565b9150509250929050565b60008060008060808587031215610ea257610ea161091a565b5b600085013567ffffffffffffffff811115610ec057610ebf61091f565b5b610ecc87828801610a3c565b945050602085013567ffffffffffffffff811115610eed57610eec61091f565b5b610ef987828801610a3c565b935050604085013567ffffffffffffffff811115610f1a57610f1961091f565b5b610f2687828801610a3c565b925050606085013567ffffffffffffffff811115610f4757610f4661091f565b5b610f5387828801610a3c565b91505092959194509250565b610f6881610b97565b82525050565b6000602082019050610f836000830184610f5f565b92915050565b600081905092915050565b6000610f9f82610adf565b610fa98185610f89565b9350610fb9818560208601610afb565b80840191505092915050565b6000610fd18284610f94565b915081905092915050565b7f4e487b7100000000000000000000000000000000000000000000000000000000600052602260045260246000fd5b6000600282049050600182168061102357607f821691505b60208210810361103657611035610fdc565b5b50919050565b600082825260208201905092915050565b7f4f6e6c792061646d696e2063616e20646f207468697300000000000000000000600082015250565b600061108360168361103c565b915061108e8261104d565b602082019050919050565b600060208201905081810360008301526110b281611076565b9050919050565b7f556e617574686f72697a65643a204e6f20726f6c652061737369676e65640000600082015250565b60006110ef601e8361103c565b91506110fa826110b9565b602082019050919050565b6000602082019050818103600083015261111e816110e2565b9050919050565b60008190508160005260206000209050919050565b60006020601f8301049050919050565b600082821b905092915050565b6000600883026111877fffffffffffffffffffffffffffffffffffffffffffffffffffffffffffffffff8261114a565b611191868361114a565b95508019841693508086168417925050509392505050565b6000819050919050565b60006111ce6111c96111c484610b5e565b6111a9565b610b5e565b9050919050565b6000819050919050565b6111e8836111b3565b6111fc6111f4826111d5565b848454611157565b825550505050565b600090565b611211611204565b61121c8184846111df565b505050565b5b8181101561124057611235600082611209565b600181019050611222565b5050565b601f8211156112855761125681611125565b61125f8461113a565b8101602085101561126e578190505b61128261127a8561113a565b830182611221565b50505b505050565b600082821c905092915050565b60006112a86000198460080261128a565b1980831691505092915050565b60006112c18383611297565b9150826002028217905092915050565b6112da82610adf565b67ffffffffffffffff8111156112f3576112f261093f565b5b6112fd825461100b565b611308828285611244565b600060209050601f83116001811461133b5760008415611329578287015190505b61133385826112b5565b86555061139b565b601f19841661134986611125565b60005b828110156113715784890151825560018201915060208501945060208101905061134c565b8683101561138e578489015161138a601f891682611297565b8355505b6001600288020188555050505b505050505050565b60006113ae82610adf565b6113b8818561103c565b93506113c8818560208601610afb565b6113d18161092e565b840191505092915050565b60006080820190506113f16000830187610d0e565b818103602083015261140381866113a3565b9050818103604083015261141781856113a3565b90506114266060830184610f5f565b9594505050505056fea2646970667358221220a2f9ebfbcd6a85c32a1ccd9589fe1b5737fea10f09ec7e09e26869c2e96ab85064736f6c63430008180033",
  "linkReferences": {},
  "deployedLinkReferences": {}
}